{
  "contractName": "Analysis",
  "abi": [
    {
      "anonymous": false,
      "inputs": [
        {
          "indexed": false,
          "internalType": "string",
          "name": "s0",
          "type": "string"
        },
        {
          "indexed": false,
          "internalType": "string",
          "name": "s1",
          "type": "string"
        },
        {
          "indexed": false,
          "internalType": "string",
          "name": "s2",
          "type": "string"
        },
        {
          "indexed": false,
          "internalType": "uint256",
          "name": "u0",
          "type": "uint256"
        },
        {
          "indexed": false,
          "internalType": "uint256",
          "name": "u1",
          "type": "uint256"
        },
        {
          "indexed": false,
          "internalType": "uint256",
          "name": "u2",
          "type": "uint256"
        },
        {
          "indexed": false,
          "internalType": "int256",
          "name": "g1",
          "type": "int256"
        },
        {
          "indexed": false,
          "internalType": "int256",
          "name": "g2",
          "type": "int256"
        },
        {
          "indexed": false,
          "internalType": "int256",
          "name": "d",
          "type": "int256"
        }
      ],
      "name": "GasAnalyzeLog",
      "type": "event"
    },
    {
      "inputs": [],
      "name": "run_0001",
      "outputs": [],
      "stateMutability": "nonpayable",
      "type": "function"
    },
    {
      "inputs": [],
      "name": "run_0002",
      "outputs": [],
      "stateMutability": "nonpayable",
      "type": "function"
    }
  ],
  "bytecode": "0x60806040527fffffffffffffffffffffffffffffffffffffffffffffffffffffffffffffffff6000557ffffffffffffffffffffffffffffffffffffffffffffffffffffffffffffffffe600155600060025560016003556003600455637fffffff60055534801561006f57600080fd5b50610ac78061007f6000396000f3fe608060405234801561001057600080fd5b50600436106100365760003560e01c806390f2ba9e1461003b578063a92a210214610045575b600080fd5b61004361004f565b005b61004d610093565b005b61005a6002546100d7565b6100656003546100d7565b6100706004546100d7565b61007b6005546100d7565b6100866001546100d7565b6100916000546100d7565b565b61009e600254610454565b6100a9600354610454565b6100b4600454610454565b6100bf600554610454565b6100ca600154610454565b6100d5600054610454565b565b60006040518060400160405280600f81526020017f676173416e616c797a655f3030303200000000000000000000000000000000008152506040518060400160405280600781526020017f5f763120252032000000000000000000000000000000000000000000000000008152506040518060400160405280600a81526020017f5f76312e6d6f6428322900000000000000000000000000000000000000000000815250600d6000600e6000600f600086919050908051906020019061019e9291906109ec565b508591905090805190602001906101b69291906109ec565b508491905090805190602001906101ce9291906109ec565b505050505a600681905550600282816101e357fe5b0690505a6007819055506102016002836107d190919063ffffffff16565b90505a600881905550506007546006540360085460075403600754600202600854600654010360096000600a6000600c60008691905055859190505584919050555050507f9459632d879619ddc2e0553cd90d2c0250e29952a06e1649f519e0d7d9ae0a47600d600e600f600654600754600854600954600a54600c54604051808060200180602001806020018a815260200189815260200188815260200187815260200186815260200185815260200184810384528d8181546001816001161561010002031660029004815260200191508054600181600116156101000203166002900480156103335780601f1061030857610100808354040283529160200191610333565b820191906000526020600020905b81548152906001019060200180831161031657829003601f168201915b505084810383528c8181546001816001161561010002031660029004815260200191508054600181600116156101000203166002900480156103b65780601f1061038b576101008083540402835291602001916103b6565b820191906000526020600020905b81548152906001019060200180831161039957829003601f168201915b505084810382528b8181546001816001161561010002031660029004815260200191508054600181600116156101000203166002900480156104395780601f1061040e57610100808354040283529160200191610439565b820191906000526020600020905b81548152906001019060200180831161041c57829003601f168201915b50509c5050505050505050505050505060405180910390a150565b60006040518060400160405280600f81526020017f676173416e616c797a655f3030303100000000000000000000000000000000008152506040518060400160405280600781526020017f5f7631202f2032000000000000000000000000000000000000000000000000008152506040518060400160405280600a81526020017f5f76312e64697628322900000000000000000000000000000000000000000000815250600d6000600e6000600f600086919050908051906020019061051b9291906109ec565b508591905090805190602001906105339291906109ec565b5084919050908051906020019061054b9291906109ec565b505050505a6006819055506002828161056057fe5b0490505a60078190555061057e60028361081b90919063ffffffff16565b90505a600881905550506007546006540360085460075403600754600202600854600654010360096000600a6000600c60008691905055859190505584919050555050507f9459632d879619ddc2e0553cd90d2c0250e29952a06e1649f519e0d7d9ae0a47600d600e600f600654600754600854600954600a54600c54604051808060200180602001806020018a815260200189815260200188815260200187815260200186815260200185815260200184810384528d8181546001816001161561010002031660029004815260200191508054600181600116156101000203166002900480156106b05780601f10610685576101008083540402835291602001916106b0565b820191906000526020600020905b81548152906001019060200180831161069357829003601f168201915b505084810383528c8181546001816001161561010002031660029004815260200191508054600181600116156101000203166002900480156107335780601f1061070857610100808354040283529160200191610733565b820191906000526020600020905b81548152906001019060200180831161071657829003601f168201915b505084810382528b8181546001816001161561010002031660029004815260200191508054600181600116156101000203166002900480156107b65780601f1061078b576101008083540402835291602001916107b6565b820191906000526020600020905b81548152906001019060200180831161079957829003601f168201915b50509c5050505050505050505050505060405180910390a150565b600061081383836040518060400160405280601881526020017f536166654d6174683a206d6f64756c6f206279207a65726f0000000000000000815250610865565b905092915050565b600061085d83836040518060400160405280601a81526020017f536166654d6174683a206469766973696f6e206279207a65726f000000000000815250610926565b905092915050565b6000808314158290610912576040517f08c379a00000000000000000000000000000000000000000000000000000000081526004018080602001828103825283818151815260200191508051906020019080838360005b838110156108d75780820151818401526020810190506108bc565b50505050905090810190601f1680156109045780820380516001836020036101000a031916815260200191505b509250505060405180910390fd5b5082848161091c57fe5b0690509392505050565b600080831182906109d2576040517f08c379a00000000000000000000000000000000000000000000000000000000081526004018080602001828103825283818151815260200191508051906020019080838360005b8381101561099757808201518184015260208101905061097c565b50505050905090810190601f1680156109c45780820380516001836020036101000a031916815260200191505b509250505060405180910390fd5b5060008385816109de57fe5b049050809150509392505050565b828054600181600116156101000203166002900490600052602060002090601f016020900481019282601f10610a2d57805160ff1916838001178555610a5b565b82800160010185558215610a5b579182015b82811115610a5a578251825591602001919060010190610a3f565b5b509050610a689190610a6c565b5090565b610a8e91905b80821115610a8a576000816000905550600101610a72565b5090565b9056fea2646970667358221220e107e0a4ba67afc342e7e2d0d93f3eca98f7db2aed57b9c22f8903832c2334cc64736f6c634300060a0033",
  "immutableReferences": {},
  "source": "// SPDX-License-Identifier: MIT\r\nimport \"./SafeMath.sol\";\r\npragma solidity 0.6.10;\r\ncontract Analysis {\r\n    using SafeMath for uint;\r\n    uint MAX_UINT = 0xffffffffffffffffffffffffffffffffffffffffffffffffffffffffffffffff;\r\n    uint MAX_UINT_LESS_1 = 0xfffffffffffffffffffffffffffffffffffffffffffffffffffffffffffffffe;\r\n    uint MIN_UINT = 0x0000000000000000000000000000000000000000000000000000000000000000;\r\n    uint MIN_UINT_PLUS_1 = 0x0000000000000000000000000000000000000000000000000000000000000001;\r\n    uint FIRST_PRIME_NUMBER_NOT_PAIR = 3;\r\n    uint EULERO_PRIME_NUMBER = 2147483647;\r\n    uint u0;\r\n    uint u1;\r\n    uint u2;\r\n    int g1;\r\n    int g2;\r\n    uint n;\r\n    int d;  //If > 0, s1 is more fast than s2, else s2 is more fast than s1\r\n    string s0;\r\n    string s1;\r\n    string s2;\r\n    mapping(string => int) data_d;\r\n    event GasAnalyzeLog(string s0, string s1, string s2, uint u0, uint u1, uint u2, int g1, int g2, int d);\r\n    modifier analyzeGas {\r\n        _;\r\n        (g1, g2, d) = (int(u0 - u1),int(u1 - u2),int(u0 + u2 - 2 * u1));\r\n        emit GasAnalyzeLog(s0, s1, s2, u0, u1, u2, g1, g2, d);\r\n    }\r\n    function run_0001() public {\r\n        gasAnalyze_0001(MIN_UINT);\r\n        gasAnalyze_0001(MIN_UINT_PLUS_1);\r\n        gasAnalyze_0001(FIRST_PRIME_NUMBER_NOT_PAIR);\r\n        gasAnalyze_0001(EULERO_PRIME_NUMBER);\r\n        gasAnalyze_0001(MAX_UINT_LESS_1);\r\n        gasAnalyze_0001(MAX_UINT);\r\n    }\r\n\r\n        function run_0002() public {\r\n        gasAnalyze_0002(MIN_UINT);\r\n        gasAnalyze_0002(MIN_UINT_PLUS_1);\r\n        gasAnalyze_0002(FIRST_PRIME_NUMBER_NOT_PAIR);\r\n        gasAnalyze_0002(EULERO_PRIME_NUMBER);\r\n        gasAnalyze_0002(MAX_UINT_LESS_1);\r\n        gasAnalyze_0002(MAX_UINT);\r\n    }\r\n\r\n    function gasAnalyze_0001(uint _v) internal analyzeGas {\r\n        uint r;\r\n        (s0, s1, s2) = (\"gasAnalyze_0001\", \"_v1 / 2\", \"_v1.div(2)\");\r\n        u0 = gasleft();\r\n        r = _v / 2;\r\n        u1 = gasleft();\r\n        r = _v.div(2);\r\n        u2 = gasleft();\r\n    }\r\n\r\n    function gasAnalyze_0002(uint _v) internal analyzeGas {\r\n        uint r;\r\n        (s0, s1, s2) = (\"gasAnalyze_0002\", \"_v1 % 2\", \"_v1.mod(2)\");\r\n        u0 = gasleft();\r\n        r = _v % 2;\r\n        u1 = gasleft();\r\n        r = _v.mod(2);\r\n        u2 = gasleft();\r\n    }\r\n}\r\n/*\r\n    GAS ANALYZE 0001\r\n\r\n\t[ { \"from\": \"0x1d142a62E2e98474093545D4A3A0f7DB9503B8BD\", \"topic\": \"0x9459632d879619ddc2e0553cd90d2c0250e29952a06e1649f519e0d7d9ae0a47\", \"event\": \"GasAnalyzeLog\", \"args\": { \"0\": \"gasAnalyze_0001\", \"1\": \"_v1 / 2\", \"2\": \"_v1.div(2)\", \"3\": \"2914141\", \"4\": \"2894095\", \"5\": \"2873836\", \"6\": \"20046\", \"7\": \"20259\", \"8\": \"-213\", \"s0\": \"gasAnalyze_0001\", \"s1\": \"_v1 / 2\", \"s2\": \"_v1.div(2)\", \"u0\": \"2914141\", \"u1\": \"2894095\", \"u2\": \"2873836\", \"g1\": \"20046\", \"g2\": \"20259\", \"d\": \"-213\" } },\r\n      { \"from\": \"0x1d142a62E2e98474093545D4A3A0f7DB9503B8BD\", \"topic\": \"0x9459632d879619ddc2e0553cd90d2c0250e29952a06e1649f519e0d7d9ae0a47\", \"event\": \"GasAnalyzeLog\", \"args\": { \"0\": \"gasAnalyze_0001\", \"1\": \"_v1 / 2\", \"2\": \"_v1.div(2)\", \"3\": \"2761197\", \"4\": \"2760351\", \"5\": \"2759298\", \"6\": \"846\", \"7\": \"1053\", \"8\": \"-207\", \"s0\": \"gasAnalyze_0001\", \"s1\": \"_v1 / 2\", \"s2\": \"_v1.div(2)\", \"u0\": \"2761197\", \"u1\": \"2760351\", \"u2\": \"2759298\", \"g1\": \"846\", \"g2\": \"1053\", \"d\": \"-207\" } },\r\n      { \"from\": \"0x1d142a62E2e98474093545D4A3A0f7DB9503B8BD\", \"topic\": \"0x9459632d879619ddc2e0553cd90d2c0250e29952a06e1649f519e0d7d9ae0a47\", \"event\": \"GasAnalyzeLog\", \"args\": { \"0\": \"gasAnalyze_0001\", \"1\": \"_v1 / 2\", \"2\": \"_v1.div(2)\", \"3\": \"2723480\", \"4\": \"2722634\", \"5\": \"2721581\", \"6\": \"846\", \"7\": \"1053\", \"8\": \"-207\", \"s0\": \"gasAnalyze_0001\", \"s1\": \"_v1 / 2\", \"s2\": \"_v1.div(2)\", \"u0\": \"2723480\", \"u1\": \"2722634\", \"u2\": \"2721581\", \"g1\": \"846\", \"g2\": \"1053\", \"d\": \"-207\" } }, \r\n      { \"from\": \"0x1d142a62E2e98474093545D4A3A0f7DB9503B8BD\", \"topic\": \"0x9459632d879619ddc2e0553cd90d2c0250e29952a06e1649f519e0d7d9ae0a47\", \"event\": \"GasAnalyzeLog\", \"args\": { \"0\": \"gasAnalyze_0001\", \"1\": \"_v1 / 2\", \"2\": \"_v1.div(2)\", \"3\": \"2685763\", \"4\": \"2684917\", \"5\": \"2683864\", \"6\": \"846\", \"7\": \"1053\", \"8\": \"-207\", \"s0\": \"gasAnalyze_0001\", \"s1\": \"_v1 / 2\", \"s2\": \"_v1.div(2)\", \"u0\": \"2685763\", \"u1\": \"2684917\", \"u2\": \"2683864\", \"g1\": \"846\", \"g2\": \"1053\", \"d\": \"-207\" } }, \r\n      { \"from\": \"0x1d142a62E2e98474093545D4A3A0f7DB9503B8BD\", \"topic\": \"0x9459632d879619ddc2e0553cd90d2c0250e29952a06e1649f519e0d7d9ae0a47\", \"event\": \"GasAnalyzeLog\", \"args\": { \"0\": \"gasAnalyze_0001\", \"1\": \"_v1 / 2\", \"2\": \"_v1.div(2)\", \"3\": \"2648045\", \"4\": \"2647199\", \"5\": \"2646146\", \"6\": \"846\", \"7\": \"1053\", \"8\": \"-207\", \"s0\": \"gasAnalyze_0001\", \"s1\": \"_v1 / 2\", \"s2\": \"_v1.div(2)\", \"u0\": \"2648045\", \"u1\": \"2647199\", \"u2\": \"2646146\", \"g1\": \"846\", \"g2\": \"1053\", \"d\": \"-207\" } },\r\n      { \"from\": \"0x1d142a62E2e98474093545D4A3A0f7DB9503B8BD\", \"topic\": \"0x9459632d879619ddc2e0553cd90d2c0250e29952a06e1649f519e0d7d9ae0a47\", \"event\": \"GasAnalyzeLog\", \"args\": { \"0\": \"gasAnalyze_0001\", \"1\": \"_v1 / 2\", \"2\": \"_v1.div(2)\", \"3\": \"2610328\", \"4\": \"2609482\", \"5\": \"2608429\", \"6\": \"846\", \"7\": \"1053\", \"8\": \"-207\", \"s0\": \"gasAnalyze_0001\", \"s1\": \"_v1 / 2\", \"s2\": \"_v1.div(2)\", \"u0\": \"2610328\", \"u1\": \"2609482\", \"u2\": \"2608429\", \"g1\": \"846\", \"g2\": \"1053\", \"d\": \"-207\" } } ]  \r\n\r\n    GAS ANALYZE 0002\r\n\r\n    [ { \"from\": \"0x26b989b9525Bb775C8DEDf70FeE40C36B397CE67\", \"topic\": \"0x9459632d879619ddc2e0553cd90d2c0250e29952a06e1649f519e0d7d9ae0a47\", \"event\": \"GasAnalyzeLog\", \"args\": { \"0\": \"gasAnalyze_0002\", \"1\": \"_v1 % 2\", \"2\": \"_v1.mod(2)\", \"3\": \"2914141\", \"4\": \"2894095\", \"5\": \"2873846\", \"6\": \"20046\", \"7\": \"20249\", \"8\": \"-203\", \"s0\": \"gasAnalyze_0002\", \"s1\": \"_v1 % 2\", \"s2\": \"_v1.mod(2)\", \"u0\": \"2914141\", \"u1\": \"2894095\", \"u2\": \"2873846\", \"g1\": \"20046\", \"g2\": \"20249\", \"d\": \"-203\" } }, \r\n      { \"from\": \"0x26b989b9525Bb775C8DEDf70FeE40C36B397CE67\", \"topic\": \"0x9459632d879619ddc2e0553cd90d2c0250e29952a06e1649f519e0d7d9ae0a47\", \"event\": \"GasAnalyzeLog\", \"args\": { \"0\": \"gasAnalyze_0002\", \"1\": \"_v1 % 2\", \"2\": \"_v1.mod(2)\", \"3\": \"2761207\", \"4\": \"2760361\", \"5\": \"2759318\", \"6\": \"846\", \"7\": \"1043\", \"8\": \"-197\", \"s0\": \"gasAnalyze_0002\", \"s1\": \"_v1 % 2\", \"s2\": \"_v1.mod(2)\", \"u0\": \"2761207\", \"u1\": \"2760361\", \"u2\": \"2759318\", \"g1\": \"846\", \"g2\": \"1043\", \"d\": \"-197\" } }, \r\n      { \"from\": \"0x26b989b9525Bb775C8DEDf70FeE40C36B397CE67\", \"topic\": \"0x9459632d879619ddc2e0553cd90d2c0250e29952a06e1649f519e0d7d9ae0a47\", \"event\": \"GasAnalyzeLog\", \"args\": { \"0\": \"gasAnalyze_0002\", \"1\": \"_v1 % 2\", \"2\": \"_v1.mod(2)\", \"3\": \"2723500\", \"4\": \"2722654\", \"5\": \"2721611\", \"6\": \"846\", \"7\": \"1043\", \"8\": \"-197\", \"s0\": \"gasAnalyze_0002\", \"s1\": \"_v1 % 2\", \"s2\": \"_v1.mod(2)\", \"u0\": \"2723500\", \"u1\": \"2722654\", \"u2\": \"2721611\", \"g1\": \"846\", \"g2\": \"1043\", \"d\": \"-197\" } }, \r\n      { \"from\": \"0x26b989b9525Bb775C8DEDf70FeE40C36B397CE67\", \"topic\": \"0x9459632d879619ddc2e0553cd90d2c0250e29952a06e1649f519e0d7d9ae0a47\", \"event\": \"GasAnalyzeLog\", \"args\": { \"0\": \"gasAnalyze_0002\", \"1\": \"_v1 % 2\", \"2\": \"_v1.mod(2)\", \"3\": \"2685793\", \"4\": \"2684947\", \"5\": \"2683904\", \"6\": \"846\", \"7\": \"1043\", \"8\": \"-197\", \"s0\": \"gasAnalyze_0002\", \"s1\": \"_v1 % 2\", \"s2\": \"_v1.mod(2)\", \"u0\": \"2685793\", \"u1\": \"2684947\", \"u2\": \"2683904\", \"g1\": \"846\", \"g2\": \"1043\", \"d\": \"-197\" } }, \r\n      { \"from\": \"0x26b989b9525Bb775C8DEDf70FeE40C36B397CE67\", \"topic\": \"0x9459632d879619ddc2e0553cd90d2c0250e29952a06e1649f519e0d7d9ae0a47\", \"event\": \"GasAnalyzeLog\", \"args\": { \"0\": \"gasAnalyze_0002\", \"1\": \"_v1 % 2\", \"2\": \"_v1.mod(2)\", \"3\": \"2648085\", \"4\": \"2647239\", \"5\": \"2646196\", \"6\": \"846\", \"7\": \"1043\", \"8\": \"-197\", \"s0\": \"gasAnalyze_0002\", \"s1\": \"_v1 % 2\", \"s2\": \"_v1.mod(2)\", \"u0\": \"2648085\", \"u1\": \"2647239\", \"u2\": \"2646196\", \"g1\": \"846\", \"g2\": \"1043\", \"d\": \"-197\" } }, \r\n      { \"from\": \"0x26b989b9525Bb775C8DEDf70FeE40C36B397CE67\", \"topic\": \"0x9459632d879619ddc2e0553cd90d2c0250e29952a06e1649f519e0d7d9ae0a47\", \"event\": \"GasAnalyzeLog\", \"args\": { \"0\": \"gasAnalyze_0002\", \"1\": \"_v1 % 2\", \"2\": \"_v1.mod(2)\", \"3\": \"2610378\", \"4\": \"2609532\", \"5\": \"2608489\", \"6\": \"846\", \"7\": \"1043\", \"8\": \"-197\", \"s0\": \"gasAnalyze_0002\", \"s1\": \"_v1 % 2\", \"s2\": \"_v1.mod(2)\", \"u0\": \"2610378\", \"u1\": \"2609532\", \"u2\": \"2608489\", \"g1\": \"846\", \"g2\": \"1043\", \"d\": \"-197\" } } ]  \r\n*/",
  "sourcePath": "/home/vagrant/DAPPS/project1_b9lab/dapps/tmp-32507lSn1irRp5KaP/box/contracts/Analysis.sol",
  "compiler": {
    "name": "solc",
    "version": "0.6.10+commit.00c0fcaf.Emscripten.clang"
  },
  "schemaVersion": "3.2.0",
  "updatedAt": "2020-12-30T15:33:02.712Z",
  "devdoc": {
    "methods": {}
  },
  "userdoc": {
    "methods": {}
  }
}