{
  "contractName": "Splitter",
  "abi": [
    {
      "inputs": [],
      "stateMutability": "nonpayable",
      "type": "constructor"
    },
    {
      "anonymous": false,
      "inputs": [
        {
          "indexed": true,
          "internalType": "address",
          "name": "owner",
          "type": "address"
        },
        {
          "indexed": false,
          "internalType": "uint256",
          "name": "amount",
          "type": "uint256"
        }
      ],
      "name": "SplitLog",
      "type": "event"
    },
    {
      "anonymous": false,
      "inputs": [
        {
          "indexed": false,
          "internalType": "address",
          "name": "beneficiary",
          "type": "address"
        },
        {
          "indexed": false,
          "internalType": "uint256",
          "name": "amount",
          "type": "uint256"
        }
      ],
      "name": "WithdrawRefundlog",
      "type": "event"
    },
    {
      "inputs": [
        {
          "internalType": "address",
          "name": "_first",
          "type": "address"
        },
        {
          "internalType": "address",
          "name": "_second",
          "type": "address"
        }
      ],
      "name": "split",
      "outputs": [
        {
          "internalType": "bool",
          "name": "",
          "type": "bool"
        }
      ],
      "stateMutability": "payable",
      "type": "function",
      "payable": true
    },
    {
      "inputs": [
        {
          "internalType": "address",
          "name": "_address",
          "type": "address"
        }
      ],
      "name": "getBalance",
      "outputs": [
        {
          "internalType": "uint256",
          "name": "",
          "type": "uint256"
        }
      ],
      "stateMutability": "view",
      "type": "function",
      "constant": true
    },
    {
      "inputs": [],
      "name": "withdrawRefund",
      "outputs": [
        {
          "internalType": "bool",
          "name": "",
          "type": "bool"
        }
      ],
      "stateMutability": "nonpayable",
      "type": "function"
    },
    {
      "inputs": [],
      "name": "getOwner",
      "outputs": [
        {
          "internalType": "address",
          "name": "",
          "type": "address"
        }
      ],
      "stateMutability": "view",
      "type": "function",
      "constant": true
    }
  ],
  "bytecode": "0x608060405234801561001057600080fd5b50336000806101000a81548173ffffffffffffffffffffffffffffffffffffffff021916908373ffffffffffffffffffffffffffffffffffffffff1602179055506107c0806100606000396000f3fe60806040526004361061003f5760003560e01c80630f2c932914610044578063110f8874146100c0578063893d20e8146100ef578063f8b2cb4f14610146575b600080fd5b6100a66004803603604081101561005a57600080fd5b81019080803573ffffffffffffffffffffffffffffffffffffffff169060200190929190803573ffffffffffffffffffffffffffffffffffffffff1690602001909291905050506101ab565b604051808215151515815260200191505060405180910390f35b3480156100cc57600080fd5b506100d561052e565b604051808215151515815260200191505060405180910390f35b3480156100fb57600080fd5b506101046106cb565b604051808273ffffffffffffffffffffffffffffffffffffffff1673ffffffffffffffffffffffffffffffffffffffff16815260200191505060405180910390f35b34801561015257600080fd5b506101956004803603602081101561016957600080fd5b81019080803573ffffffffffffffffffffffffffffffffffffffff1690602001909291905050506106f4565b6040518082815260200191505060405180910390f35b60003373ffffffffffffffffffffffffffffffffffffffff168373ffffffffffffffffffffffffffffffffffffffff161415801561021557503373ffffffffffffffffffffffffffffffffffffffff168273ffffffffffffffffffffffffffffffffffffffff1614155b801561024d57508173ffffffffffffffffffffffffffffffffffffffff168373ffffffffffffffffffffffffffffffffffffffff1614155b6102a2576040517f08c379a00000000000000000000000000000000000000000000000000000000081526004018080602001828103825260298152602001806107626029913960400191505060405180910390fd5b600073ffffffffffffffffffffffffffffffffffffffff168373ffffffffffffffffffffffffffffffffffffffff161415801561030c5750600073ffffffffffffffffffffffffffffffffffffffff168273ffffffffffffffffffffffffffffffffffffffff1614155b61037e576040517f08c379a000000000000000000000000000000000000000000000000000000000815260040180806020018281038252601f8152602001807f42656e6566696369617269657320636f756c64206e6f74206265206e756c6c0081525060200191505060405180910390fd5b6000600160008573ffffffffffffffffffffffffffffffffffffffff1673ffffffffffffffffffffffffffffffffffffffff1681526020019081526020016000205490506000600160008573ffffffffffffffffffffffffffffffffffffffff1673ffffffffffffffffffffffffffffffffffffffff16815260200190815260200160002054905060006002348161041257fe5b04905060008134039050838285011161042a57600080fd5b828184011161043857600080fd5b81600160008973ffffffffffffffffffffffffffffffffffffffff1673ffffffffffffffffffffffffffffffffffffffff1681526020019081526020016000206000828254019250508190555080600160008873ffffffffffffffffffffffffffffffffffffffff1673ffffffffffffffffffffffffffffffffffffffff168152602001908152602001600020600082825401925050819055503373ffffffffffffffffffffffffffffffffffffffff167f9743f06f9f743fdc223f6348cc3bacb7462243b0e04cb96a49ac2b3c7f58e7e5346040518082815260200191505060405180910390a2600194505050505092915050565b600080600160003373ffffffffffffffffffffffffffffffffffffffff1673ffffffffffffffffffffffffffffffffffffffff168152602001908152602001600020549050600081116105cc576040517f08c379a000000000000000000000000000000000000000000000000000000000815260040180806020018281038252602481526020018061073e6024913960400191505060405180910390fd5b3373ffffffffffffffffffffffffffffffffffffffff166108fc829081150290604051600060405180830381858888f19350505050158015610612573d6000803e3d6000fd5b506000600160003373ffffffffffffffffffffffffffffffffffffffff1673ffffffffffffffffffffffffffffffffffffffff168152602001908152602001600020819055507fb2af39b969bda44c4b7ffbe170e6cfd7caf8aa980392780b47f64fb64e9b44423382604051808373ffffffffffffffffffffffffffffffffffffffff1673ffffffffffffffffffffffffffffffffffffffff1681526020018281526020019250505060405180910390a1600191505090565b60008060009054906101000a900473ffffffffffffffffffffffffffffffffffffffff16905090565b6000600160008373ffffffffffffffffffffffffffffffffffffffff1673ffffffffffffffffffffffffffffffffffffffff16815260200190815260200160002054905091905056fe4e6f207765692061726520617661696c61626c6520696e20746869732062616c616e63655468657265206172652074776f206f72206d6f7265206964656e746963616c20616464726573736573a2646970667358221220051398f656326b5ad7fc4aa7646fdb465f50aa77e679fe749d192d1b0022129a64736f6c634300060a0033",
  "immutableReferences": {},
  "source": "// SPDX-License-Identifier: MIT\r\n\r\npragma solidity 0.6.10;\r\n\r\ncontract Splitter {\r\n\r\n    address owner;\r\n\r\n    event SplitLog(address indexed owner, uint amount);\r\n    event WithdrawRefundlog(address beneficiary, uint amount);\r\n\r\n    mapping(address => uint) balances;\r\n\r\n    modifier onlyOwner {\r\n        require(owner == msg.sender);\r\n        _;\r\n    }\r\n\r\n    constructor() public {\r\n        owner = msg.sender;\r\n    }   \r\n    \r\n    function split(address _first, address _second) payable public returns(bool){\r\n\r\n        require(_first != msg.sender && _second != msg.sender && _first != _second, \"There are two or more identical addresses\");\r\n        require(_first != address(0x0) && _second != address(0x0), \"Beneficiaries could not be null\");\r\n\r\n        uint actualFirstBalance = balances[_first];\r\n        uint actualSecondBalance = balances[_second];\r\n        uint half1 = msg.value / 2;\r\n        uint half2 = msg.value - half1;\r\n        \r\n        require(actualFirstBalance + half1 > actualFirstBalance);\r\n        require(actualSecondBalance + half2 > actualSecondBalance);\r\n\r\n        balances[_first] += half1;\r\n        balances[_second] += half2;\r\n\r\n        emit SplitLog(msg.sender, msg.value);\r\n\r\n        return true;\r\n    }\r\n\r\n    function getBalance(address _address) public view returns(uint){\r\n        return balances[_address];\r\n    }\r\n\r\n    function withdrawRefund() public returns(bool){\r\n        uint amountToRefund = balances[msg.sender];\r\n        require(amountToRefund > 0, \"No wei are available in this balance\"); \r\n        msg.sender.transfer(amountToRefund);\r\n        balances[msg.sender] = 0;\r\n        emit WithdrawRefundlog(msg.sender, amountToRefund);\r\n        return true;\r\n    }\r\n\r\n    function getOwner() public view returns(address){\r\n        return owner;\r\n    }\r\n\r\n}",
  "sourcePath": "/home/vagrant/DAPPS/project1_b9lab/dapps/tmp-32507lSn1irRp5KaP/box/contracts/Splitter.sol",
  "compiler": {
    "name": "solc",
    "version": "0.6.10+commit.00c0fcaf.Emscripten.clang"
  },
  "schemaVersion": "3.2.0",
  "updatedAt": "2020-12-18T21:31:52.657Z",
  "networkType": "ethereum",
  "devdoc": {
    "methods": {}
  },
  "userdoc": {
    "methods": {}
  }
}