{
  "contractName": "Splitter",
  "abi": [
    {
      "inputs": [],
      "stateMutability": "nonpayable",
      "type": "constructor"
    },
    {
      "anonymous": false,
      "inputs": [
        {
          "indexed": true,
          "internalType": "address",
          "name": "owner",
          "type": "address"
        },
        {
          "indexed": false,
          "internalType": "uint256",
          "name": "amount",
          "type": "uint256"
        },
        {
          "indexed": false,
          "internalType": "address",
          "name": "first",
          "type": "address"
        },
        {
          "indexed": false,
          "internalType": "address",
          "name": "second",
          "type": "address"
        }
      ],
      "name": "SplitLog",
      "type": "event"
    },
    {
      "anonymous": false,
      "inputs": [
        {
          "indexed": false,
          "internalType": "address",
          "name": "beneficiary",
          "type": "address"
        },
        {
          "indexed": false,
          "internalType": "uint256",
          "name": "amount",
          "type": "uint256"
        }
      ],
      "name": "WithdrawRefundlog",
      "type": "event"
    },
    {
      "inputs": [
        {
          "internalType": "address",
          "name": "",
          "type": "address"
        }
      ],
      "name": "balances",
      "outputs": [
        {
          "internalType": "uint256",
          "name": "",
          "type": "uint256"
        }
      ],
      "stateMutability": "view",
      "type": "function",
      "constant": true
    },
    {
      "inputs": [],
      "name": "owner",
      "outputs": [
        {
          "internalType": "address",
          "name": "",
          "type": "address"
        }
      ],
      "stateMutability": "view",
      "type": "function",
      "constant": true
    },
    {
      "inputs": [
        {
          "internalType": "address",
          "name": "_first",
          "type": "address"
        },
        {
          "internalType": "address",
          "name": "_second",
          "type": "address"
        }
      ],
      "name": "split",
      "outputs": [
        {
          "internalType": "bool",
          "name": "",
          "type": "bool"
        }
      ],
      "stateMutability": "payable",
      "type": "function",
      "payable": true
    },
    {
      "inputs": [],
      "name": "getBalance",
      "outputs": [
        {
          "internalType": "uint256",
          "name": "",
          "type": "uint256"
        }
      ],
      "stateMutability": "view",
      "type": "function",
      "constant": true
    },
    {
      "inputs": [],
      "name": "withdrawRefund",
      "outputs": [
        {
          "internalType": "bool",
          "name": "",
          "type": "bool"
        }
      ],
      "stateMutability": "nonpayable",
      "type": "function"
    },
    {
      "inputs": [],
      "name": "getOwner",
      "outputs": [
        {
          "internalType": "address",
          "name": "",
          "type": "address"
        }
      ],
      "stateMutability": "view",
      "type": "function",
      "constant": true
    }
  ],
  "bytecode": "0x608060405234801561001057600080fd5b50336000806101000a81548173ffffffffffffffffffffffffffffffffffffffff021916908373ffffffffffffffffffffffffffffffffffffffff1602179055506109ca806100606000396000f3fe6080604052600436106100555760003560e01c80630f2c93291461005a578063110f8874146100d657806312065fe01461010557806327e235e314610130578063893d20e8146101955780638da5cb5b146101ec575b600080fd5b6100bc6004803603604081101561007057600080fd5b81019080803573ffffffffffffffffffffffffffffffffffffffff169060200190929190803573ffffffffffffffffffffffffffffffffffffffff169060200190929190505050610243565b604051808215151515815260200191505060405180910390f35b3480156100e257600080fd5b506100eb610675565b604051808215151515815260200191505060405180910390f35b34801561011157600080fd5b5061011a610812565b6040518082815260200191505060405180910390f35b34801561013c57600080fd5b5061017f6004803603602081101561015357600080fd5b81019080803573ffffffffffffffffffffffffffffffffffffffff169060200190929190505050610859565b6040518082815260200191505060405180910390f35b3480156101a157600080fd5b506101aa610871565b604051808273ffffffffffffffffffffffffffffffffffffffff1673ffffffffffffffffffffffffffffffffffffffff16815260200191505060405180910390f35b3480156101f857600080fd5b5061020161089a565b604051808273ffffffffffffffffffffffffffffffffffffffff1673ffffffffffffffffffffffffffffffffffffffff16815260200191505060405180910390f35b60003373ffffffffffffffffffffffffffffffffffffffff168373ffffffffffffffffffffffffffffffffffffffff16141580156102ad57503373ffffffffffffffffffffffffffffffffffffffff168273ffffffffffffffffffffffffffffffffffffffff1614155b80156102e557508173ffffffffffffffffffffffffffffffffffffffff168373ffffffffffffffffffffffffffffffffffffffff1614155b61033a576040517f08c379a000000000000000000000000000000000000000000000000000000000815260040180806020018281038252602981526020018061096c6029913960400191505060405180910390fd5b600073ffffffffffffffffffffffffffffffffffffffff168373ffffffffffffffffffffffffffffffffffffffff16141580156103a45750600073ffffffffffffffffffffffffffffffffffffffff168273ffffffffffffffffffffffffffffffffffffffff1614155b610416576040517f08c379a000000000000000000000000000000000000000000000000000000000815260040180806020018281038252601f8152602001807f42656e6566696369617269657320636f756c64206e6f74206265206e756c6c0081525060200191505060405180910390fd5b60016002348161042257fe5b0614156104775760018060003373ffffffffffffffffffffffffffffffffffffffff1673ffffffffffffffffffffffffffffffffffffffff168152602001908152602001600020600082825401925050819055505b6104d36002348161048457fe5b04600160008673ffffffffffffffffffffffffffffffffffffffff1673ffffffffffffffffffffffffffffffffffffffff168152602001908152602001600020546108bf90919063ffffffff16565b600160008573ffffffffffffffffffffffffffffffffffffffff1673ffffffffffffffffffffffffffffffffffffffff168152602001908152602001600020819055506105726002348161052357fe5b04600160008573ffffffffffffffffffffffffffffffffffffffff1673ffffffffffffffffffffffffffffffffffffffff168152602001908152602001600020546108bf90919063ffffffff16565b600160008473ffffffffffffffffffffffffffffffffffffffff1673ffffffffffffffffffffffffffffffffffffffff168152602001908152602001600020819055503373ffffffffffffffffffffffffffffffffffffffff167f67670780f01b655c17985d1fe0765322a591a186162d01379c0fcf509e9b5d7f348585604051808481526020018373ffffffffffffffffffffffffffffffffffffffff1673ffffffffffffffffffffffffffffffffffffffff1681526020018273ffffffffffffffffffffffffffffffffffffffff1673ffffffffffffffffffffffffffffffffffffffff168152602001935050505060405180910390a26001905092915050565b600080600160003373ffffffffffffffffffffffffffffffffffffffff1673ffffffffffffffffffffffffffffffffffffffff16815260200190815260200160002054905060008111610713576040517f08c379a00000000000000000000000000000000000000000000000000000000081526004018080602001828103825260248152602001806109486024913960400191505060405180910390fd5b3373ffffffffffffffffffffffffffffffffffffffff166108fc829081150290604051600060405180830381858888f19350505050158015610759573d6000803e3d6000fd5b506000600160003373ffffffffffffffffffffffffffffffffffffffff1673ffffffffffffffffffffffffffffffffffffffff168152602001908152602001600020819055507fb2af39b969bda44c4b7ffbe170e6cfd7caf8aa980392780b47f64fb64e9b44423382604051808373ffffffffffffffffffffffffffffffffffffffff1673ffffffffffffffffffffffffffffffffffffffff1681526020018281526020019250505060405180910390a1600191505090565b6000600160003373ffffffffffffffffffffffffffffffffffffffff1673ffffffffffffffffffffffffffffffffffffffff16815260200190815260200160002054905090565b60016020528060005260406000206000915090505481565b60008060009054906101000a900473ffffffffffffffffffffffffffffffffffffffff16905090565b6000809054906101000a900473ffffffffffffffffffffffffffffffffffffffff1681565b60008082840190508381101561093d576040517f08c379a000000000000000000000000000000000000000000000000000000000815260040180806020018281038252601b8152602001807f536166654d6174683a206164646974696f6e206f766572666c6f77000000000081525060200191505060405180910390fd5b809150509291505056fe4e6f207765692061726520617661696c61626c6520696e20746869732062616c616e63655468657265206172652074776f206f72206d6f7265206964656e746963616c20616464726573736573a26469706673582212200891b43c6f8e4b91c75a7d0b5928f04e0a00a4b5f6ed8c0b03203c14f2ce5b6964736f6c634300060a0033",
  "immutableReferences": {},
  "source": "// SPDX-License-Identifier: MIT\r\n\r\nimport \"./SafeMath.sol\";\r\n\r\npragma solidity 0.6.10;\r\n\r\ncontract Splitter {\r\n\r\n    using SafeMath for uint;\r\n\r\n    address public owner;\r\n\r\n    event SplitLog(address indexed owner, uint amount, address first, address second);\r\n    event WithdrawRefundlog(address beneficiary, uint amount);\r\n\r\n    mapping(address => uint) public balances;\r\n\r\n    constructor() public {\r\n        owner = msg.sender;\r\n    }   \r\n    \r\n   function split(address _first, address _second) payable public returns(bool){\r\n\r\n        require(_first != msg.sender && _second != msg.sender && _first != _second, \"There are two or more identical addresses\");\r\n        require(_first != address(0x0) && _second != address(0x0), \"Beneficiaries could not be null\");\r\n\r\n        if(msg.value % 2 == 1) {\r\n            balances[msg.sender] += 1;\r\n        }\r\n\r\n        balances[_first] = balances[_first].add(msg.value / 2);\r\n        balances[_second] = balances[_second].add(msg.value / 2);\r\n\r\n        emit SplitLog(msg.sender, msg.value, _first, _second);\r\n\r\n        return true;\r\n    }\r\n\r\n    function getBalance() public view returns(uint){\r\n        return balances[msg.sender];\r\n    }\r\n\r\n    function withdrawRefund() public returns(bool){\r\n        uint amountToRefund = balances[msg.sender];\r\n        require(amountToRefund > 0, \"No wei are available in this balance\"); \r\n        msg.sender.transfer(amountToRefund);\r\n        balances[msg.sender] = 0;\r\n        emit WithdrawRefundlog(msg.sender, amountToRefund);\r\n        return true;\r\n    }\r\n\r\n    function getOwner() public view returns(address){\r\n        return owner;\r\n    }\r\n\r\n}",
  "sourcePath": "/home/vagrant/DAPPS/project1_b9lab/dapps/tmp-32507lSn1irRp5KaP/box/contracts/Splitter.sol",
  "compiler": {
    "name": "solc",
    "version": "0.6.10+commit.00c0fcaf.Emscripten.clang"
  },
  "schemaVersion": "3.2.0",
  "updatedAt": "2020-12-21T17:58:30.339Z",
  "networkType": "ethereum",
  "devdoc": {
    "methods": {}
  },
  "userdoc": {
    "methods": {}
  }
}