{
  "contractName": "Splitter",
  "abi": [
    {
      "anonymous": false,
      "inputs": [
        {
          "indexed": true,
          "internalType": "address",
          "name": "sender",
          "type": "address"
        },
        {
          "indexed": false,
          "internalType": "uint256",
          "name": "amount",
          "type": "uint256"
        },
        {
          "indexed": false,
          "internalType": "address",
          "name": "first",
          "type": "address"
        },
        {
          "indexed": false,
          "internalType": "address",
          "name": "second",
          "type": "address"
        },
        {
          "indexed": false,
          "internalType": "uint256",
          "name": "unsplittableValue",
          "type": "uint256"
        }
      ],
      "name": "SplitLog",
      "type": "event"
    },
    {
      "anonymous": false,
      "inputs": [
        {
          "indexed": false,
          "internalType": "address",
          "name": "beneficiary",
          "type": "address"
        },
        {
          "indexed": false,
          "internalType": "uint256",
          "name": "amount",
          "type": "uint256"
        }
      ],
      "name": "WithdrawRefundlog",
      "type": "event"
    },
    {
      "stateMutability": "nonpayable",
      "type": "fallback"
    },
    {
      "inputs": [
        {
          "internalType": "address",
          "name": "",
          "type": "address"
        }
      ],
      "name": "balances",
      "outputs": [
        {
          "internalType": "uint256",
          "name": "",
          "type": "uint256"
        }
      ],
      "stateMutability": "view",
      "type": "function",
      "constant": true
    },
    {
      "inputs": [
        {
          "internalType": "address",
          "name": "_first",
          "type": "address"
        },
        {
          "internalType": "address",
          "name": "_second",
          "type": "address"
        }
      ],
      "name": "split",
      "outputs": [
        {
          "internalType": "bool",
          "name": "",
          "type": "bool"
        }
      ],
      "stateMutability": "payable",
      "type": "function",
      "payable": true
    },
    {
      "inputs": [],
      "name": "getBalance",
      "outputs": [
        {
          "internalType": "uint256",
          "name": "",
          "type": "uint256"
        }
      ],
      "stateMutability": "view",
      "type": "function",
      "constant": true
    },
    {
      "inputs": [],
      "name": "withdrawRefund",
      "outputs": [
        {
          "internalType": "bool",
          "name": "",
          "type": "bool"
        }
      ],
      "stateMutability": "nonpayable",
      "type": "function"
    }
  ],
  "bytecode": "0x608060405234801561001057600080fd5b50610bb6806100206000396000f3fe6080604052600436106100435760003560e01c80630f2c932914610056578063110f8874146100d257806312065fe01461010157806327e235e31461012c57610044565b5b34801561005057600080fd5b50600080fd5b6100b86004803603604081101561006c57600080fd5b81019080803573ffffffffffffffffffffffffffffffffffffffff169060200190929190803573ffffffffffffffffffffffffffffffffffffffff169060200190929190505050610191565b604051808215151515815260200191505060405180910390f35b3480156100de57600080fd5b506100e7610663565b604051808215151515815260200191505060405180910390f35b34801561010d57600080fd5b50610116610856565b6040518082815260200191505060405180910390f35b34801561013857600080fd5b5061017b6004803603602081101561014f57600080fd5b81019080803573ffffffffffffffffffffffffffffffffffffffff16906020019092919050505061089c565b6040518082815260200191505060405180910390f35b60003373ffffffffffffffffffffffffffffffffffffffff168373ffffffffffffffffffffffffffffffffffffffff16141580156101fb57503373ffffffffffffffffffffffffffffffffffffffff168273ffffffffffffffffffffffffffffffffffffffff1614155b801561023357508173ffffffffffffffffffffffffffffffffffffffff168373ffffffffffffffffffffffffffffffffffffffff1614155b610288576040517f08c379a0000000000000000000000000000000000000000000000000000000008152600401808060200182810382526029815260200180610b586029913960400191505060405180910390fd5b600073ffffffffffffffffffffffffffffffffffffffff168373ffffffffffffffffffffffffffffffffffffffff16141580156102f25750600073ffffffffffffffffffffffffffffffffffffffff168273ffffffffffffffffffffffffffffffffffffffff1614155b610364576040517f08c379a000000000000000000000000000000000000000000000000000000000815260040180806020018281038252601f8152602001807f42656e6566696369617269657320636f756c64206e6f74206265206e756c6c0081525060200191505060405180910390fd5b60003414156103db576040517f08c379a00000000000000000000000000000000000000000000000000000000081526004018080602001828103825260108152602001807f56616c75652063616e277420626520300000000000000000000000000000000081525060200191505060405180910390fd5b60006103f16002346108b490919063ffffffff16565b905061045761040a6002346108fe90919063ffffffff16565b6000808773ffffffffffffffffffffffffffffffffffffffff1673ffffffffffffffffffffffffffffffffffffffff1681526020019081526020016000205461094890919063ffffffff16565b6000808673ffffffffffffffffffffffffffffffffffffffff1673ffffffffffffffffffffffffffffffffffffffff168152602001908152602001600020819055506104fd6104b06002346108fe90919063ffffffff16565b6000808673ffffffffffffffffffffffffffffffffffffffff1673ffffffffffffffffffffffffffffffffffffffff1681526020019081526020016000205461094890919063ffffffff16565b6000808573ffffffffffffffffffffffffffffffffffffffff1673ffffffffffffffffffffffffffffffffffffffff168152602001908152602001600020819055506000811461059a57610598816000803373ffffffffffffffffffffffffffffffffffffffff1673ffffffffffffffffffffffffffffffffffffffff1681526020019081526020016000205461094890919063ffffffff16565b505b3373ffffffffffffffffffffffffffffffffffffffff167fcf2bd6179c28cf69075156d386aede8391fd4b181299853dcf15f969d251689d34868685604051808581526020018473ffffffffffffffffffffffffffffffffffffffff1673ffffffffffffffffffffffffffffffffffffffff1681526020018373ffffffffffffffffffffffffffffffffffffffff1673ffffffffffffffffffffffffffffffffffffffff16815260200182815260200194505050505060405180910390a2600191505092915050565b60008073ffffffffffffffffffffffffffffffffffffffff163373ffffffffffffffffffffffffffffffffffffffff16141561069e57600080fd5b60008060003373ffffffffffffffffffffffffffffffffffffffff1673ffffffffffffffffffffffffffffffffffffffff1681526020019081526020016000205490506000811415610758576040517f08c379a000000000000000000000000000000000000000000000000000000000815260040180806020018281038252601b8152602001807f42616c616e63652063616e277420626520657175616c20746f2030000000000081525060200191505060405180910390fd5b7fb2af39b969bda44c4b7ffbe170e6cfd7caf8aa980392780b47f64fb64e9b44423382604051808373ffffffffffffffffffffffffffffffffffffffff1673ffffffffffffffffffffffffffffffffffffffff1681526020018281526020019250505060405180910390a160008060003373ffffffffffffffffffffffffffffffffffffffff1673ffffffffffffffffffffffffffffffffffffffff168152602001908152602001600020819055503373ffffffffffffffffffffffffffffffffffffffff166108fc829081150290604051600060405180830381858888f1935050505015801561084d573d6000803e3d6000fd5b50600191505090565b60008060003373ffffffffffffffffffffffffffffffffffffffff1673ffffffffffffffffffffffffffffffffffffffff16815260200190815260200160002054905090565b60006020528060005260406000206000915090505481565b60006108f683836040518060400160405280601881526020017f536166654d6174683a206d6f64756c6f206279207a65726f00000000000000008152506109d0565b905092915050565b600061094083836040518060400160405280601a81526020017f536166654d6174683a206469766973696f6e206279207a65726f000000000000815250610a91565b905092915050565b6000808284019050838110156109c6576040517f08c379a000000000000000000000000000000000000000000000000000000000815260040180806020018281038252601b8152602001807f536166654d6174683a206164646974696f6e206f766572666c6f77000000000081525060200191505060405180910390fd5b8091505092915050565b6000808314158290610a7d576040517f08c379a00000000000000000000000000000000000000000000000000000000081526004018080602001828103825283818151815260200191508051906020019080838360005b83811015610a42578082015181840152602081019050610a27565b50505050905090810190601f168015610a6f5780820380516001836020036101000a031916815260200191505b509250505060405180910390fd5b50828481610a8757fe5b0690509392505050565b60008083118290610b3d576040517f08c379a00000000000000000000000000000000000000000000000000000000081526004018080602001828103825283818151815260200191508051906020019080838360005b83811015610b02578082015181840152602081019050610ae7565b50505050905090810190601f168015610b2f5780820380516001836020036101000a031916815260200191505b509250505060405180910390fd5b506000838581610b4957fe5b04905080915050939250505056fe5468657265206172652074776f206f72206d6f7265206964656e746963616c20616464726573736573a2646970667358221220cd35f642bc7bab2cd78c6e8c363e0ad98e20bc96cafaa6dee971548298b2362364736f6c634300060a0033",
  "immutableReferences": {},
  "source": "// SPDX-License-Identifier: MIT\r\n\r\nimport \"./SafeMath.sol\";\r\n\r\npragma solidity 0.6.10;\r\n\r\ncontract Splitter {\r\n\r\n    using SafeMath for uint;\r\n\r\n    event SplitLog(address indexed sender, uint amount, address first, address second, uint unsplittableValue);\r\n    event WithdrawRefundlog(address beneficiary, uint amount);\r\n\r\n    mapping(address => uint) public balances;\r\n    \r\n   function split(address _first, address _second) payable external returns(bool){\r\n\r\n        require(_first != msg.sender && _second != msg.sender && _first != _second, \"There are two or more identical addresses\");\r\n        require(_first != address(0x0) && _second != address(0x0), \"Beneficiaries could not be null\");\r\n        require(msg.value != uint(0), \"Value can't be 0\");\r\n\r\n        uint unsplittableValue = msg.value.mod(uint(2)); // See Analysis.sol to know why it should less expansive to use % 2\r\n\r\n        balances[_first] = balances[_first].add(msg.value.div(uint(2))); //See Analysis.sol to know why it should less expansive to use / 2\r\n        balances[_second] = balances[_second].add(msg.value.div(uint(2))); //See Analysis.sol to know why it should less expansive to use / 2\r\n\r\n        if(unsplittableValue != 0) balances[msg.sender].add(unsplittableValue);\r\n\r\n        emit SplitLog(msg.sender, msg.value, _first, _second, unsplittableValue);\r\n\r\n        return true;\r\n    }\r\n\r\n    function getBalance() public view returns(uint){\r\n        return balances[msg.sender];\r\n    }\r\n\r\n    function withdrawRefund() public returns(bool){\r\n\r\n        require(msg.sender != address(0x0));\r\n\r\n        uint amountToRefund = balances[msg.sender];\r\n\r\n        require(amountToRefund != uint(0), \"Balance can't be equal to 0\");\r\n\r\n        emit WithdrawRefundlog(msg.sender, amountToRefund);\r\n\r\n        balances[msg.sender] = uint(0);\r\n\r\n        msg.sender.transfer(amountToRefund);\r\n        \r\n        return true;\r\n    }\r\n\r\n    fallback() external {\r\n        revert();\r\n    }\r\n\r\n}",
  "sourcePath": "/home/vagrant/DAPPS/project1_b9lab/dapps/tmp-32507lSn1irRp5KaP/box/contracts/Splitter.sol",
  "compiler": {
    "name": "solc",
    "version": "0.6.10+commit.00c0fcaf.Emscripten.clang"
  },
  "schemaVersion": "3.2.0",
  "updatedAt": "2020-12-30T15:35:33.610Z",
  "networkType": "ethereum",
  "devdoc": {
    "methods": {}
  },
  "userdoc": {
    "methods": {}
  }
}