{
  "contractName": "Splitter",
  "abi": [
    {
      "inputs": [],
      "payable": false,
      "stateMutability": "nonpayable",
      "type": "constructor"
    },
    {
      "anonymous": false,
      "inputs": [
        {
          "indexed": true,
          "internalType": "address",
          "name": "owner",
          "type": "address"
        },
        {
          "indexed": false,
          "internalType": "uint256",
          "name": "amount",
          "type": "uint256"
        },
        {
          "indexed": false,
          "internalType": "address",
          "name": "beneficiary1",
          "type": "address"
        },
        {
          "indexed": false,
          "internalType": "address",
          "name": "beneficiary2",
          "type": "address"
        },
        {
          "indexed": false,
          "internalType": "uint256",
          "name": "owner_balance",
          "type": "uint256"
        },
        {
          "indexed": false,
          "internalType": "uint256",
          "name": "b1_balance",
          "type": "uint256"
        },
        {
          "indexed": false,
          "internalType": "uint256",
          "name": "b2_balance",
          "type": "uint256"
        }
      ],
      "name": "splitLog",
      "type": "event"
    },
    {
      "anonymous": false,
      "inputs": [
        {
          "indexed": false,
          "internalType": "address",
          "name": "beneficiary",
          "type": "address"
        },
        {
          "indexed": false,
          "internalType": "uint256",
          "name": "amount",
          "type": "uint256"
        }
      ],
      "name": "withdrawRefundLog",
      "type": "event"
    },
    {
      "constant": true,
      "inputs": [
        {
          "internalType": "uint256",
          "name": "_amount",
          "type": "uint256"
        },
        {
          "internalType": "bool",
          "name": "isUp",
          "type": "bool"
        }
      ],
      "name": "oddCheckSplit",
      "outputs": [
        {
          "internalType": "uint256",
          "name": "",
          "type": "uint256"
        }
      ],
      "payable": false,
      "stateMutability": "pure",
      "type": "function"
    },
    {
      "constant": false,
      "inputs": [
        {
          "internalType": "address",
          "name": "_first",
          "type": "address"
        },
        {
          "internalType": "address",
          "name": "_second",
          "type": "address"
        }
      ],
      "name": "split",
      "outputs": [
        {
          "internalType": "bool",
          "name": "",
          "type": "bool"
        }
      ],
      "payable": false,
      "stateMutability": "nonpayable",
      "type": "function"
    },
    {
      "constant": false,
      "inputs": [],
      "name": "addFund",
      "outputs": [
        {
          "internalType": "bool",
          "name": "",
          "type": "bool"
        }
      ],
      "payable": true,
      "stateMutability": "payable",
      "type": "function"
    },
    {
      "constant": true,
      "inputs": [
        {
          "internalType": "address",
          "name": "_address",
          "type": "address"
        }
      ],
      "name": "getBalance",
      "outputs": [
        {
          "internalType": "uint256",
          "name": "",
          "type": "uint256"
        }
      ],
      "payable": false,
      "stateMutability": "view",
      "type": "function"
    },
    {
      "constant": false,
      "inputs": [],
      "name": "withdrawRefund",
      "outputs": [],
      "payable": false,
      "stateMutability": "nonpayable",
      "type": "function"
    }
  ],
  "bytecode": "0x608060405234801561001057600080fd5b50336000806101000a81548173ffffffffffffffffffffffffffffffffffffffff021916908373ffffffffffffffffffffffffffffffffffffffff160217905550610b9e806100606000396000f3fe60806040526004361061004a5760003560e01c80630f2c93291461004f578063110f8874146100d8578063a2f09dfa146100ef578063dfc312da14610111578063f8b2cb4f1461016c575b600080fd5b34801561005b57600080fd5b506100be6004803603604081101561007257600080fd5b81019080803573ffffffffffffffffffffffffffffffffffffffff169060200190929190803573ffffffffffffffffffffffffffffffffffffffff1690602001909291905050506101d1565b604051808215151515815260200191505060405180910390f35b3480156100e457600080fd5b506100ed610853565b005b6100f7610a29565b604051808215151515815260200191505060405180910390f35b34801561011d57600080fd5b506101566004803603604081101561013457600080fd5b8101908080359060200190929190803515159060200190929190505050610a7b565b6040518082815260200191505060405180910390f35b34801561017857600080fd5b506101bb6004803603602081101561018f57600080fd5b81019080803573ffffffffffffffffffffffffffffffffffffffff169060200190929190505050610ad3565b6040518082815260200191505060405180910390f35b60003373ffffffffffffffffffffffffffffffffffffffff166000809054906101000a900473ffffffffffffffffffffffffffffffffffffffff1673ffffffffffffffffffffffffffffffffffffffff161461022c57600080fd5b64e8d4a51000600160008060009054906101000a900473ffffffffffffffffffffffffffffffffffffffff1673ffffffffffffffffffffffffffffffffffffffff1673ffffffffffffffffffffffffffffffffffffffff16815260200190815260200160002054101561029e57600080fd5b3373ffffffffffffffffffffffffffffffffffffffff168373ffffffffffffffffffffffffffffffffffffffff161415801561030657503373ffffffffffffffffffffffffffffffffffffffff168273ffffffffffffffffffffffffffffffffffffffff1614155b801561033e57508173ffffffffffffffffffffffffffffffffffffffff168373ffffffffffffffffffffffffffffffffffffffff1614155b610393576040517f08c379a0000000000000000000000000000000000000000000000000000000008152600401808060200182810382526029815260200180610b416029913960400191505060405180910390fd5b600073ffffffffffffffffffffffffffffffffffffffff168373ffffffffffffffffffffffffffffffffffffffff16141580156103fd5750600073ffffffffffffffffffffffffffffffffffffffff168273ffffffffffffffffffffffffffffffffffffffff1614155b61046f576040517f08c379a000000000000000000000000000000000000000000000000000000000815260040180806020018281038252601e8152602001807f42656e6566696369617269657320636f756c64206e6f742065206e756c6c000081525060200191505060405180910390fd5b6104b9600160003373ffffffffffffffffffffffffffffffffffffffff1673ffffffffffffffffffffffffffffffffffffffff168152602001908152602001600020546001610a7b565b600160008573ffffffffffffffffffffffffffffffffffffffff1673ffffffffffffffffffffffffffffffffffffffff1681526020019081526020016000206000828254019250508190555061054f600160003373ffffffffffffffffffffffffffffffffffffffff1673ffffffffffffffffffffffffffffffffffffffff168152602001908152602001600020546000610a7b565b600160008473ffffffffffffffffffffffffffffffffffffffff1673ffffffffffffffffffffffffffffffffffffffff168152602001908152602001600020600082825401925050819055503373ffffffffffffffffffffffffffffffffffffffff167f925cb3820fafc1713a7db49d825f3d5b3a87f940a03846da1afdd31dbe86197a600160003373ffffffffffffffffffffffffffffffffffffffff1673ffffffffffffffffffffffffffffffffffffffff168152602001908152602001600020548585600160008873ffffffffffffffffffffffffffffffffffffffff1673ffffffffffffffffffffffffffffffffffffffff16815260200190815260200160002054600160008a73ffffffffffffffffffffffffffffffffffffffff1673ffffffffffffffffffffffffffffffffffffffff16815260200190815260200160002054600160008060009054906101000a900473ffffffffffffffffffffffffffffffffffffffff1673ffffffffffffffffffffffffffffffffffffffff1673ffffffffffffffffffffffffffffffffffffffff168152602001908152602001600020540303600160008a73ffffffffffffffffffffffffffffffffffffffff1673ffffffffffffffffffffffffffffffffffffffff16815260200190815260200160002054600160008a73ffffffffffffffffffffffffffffffffffffffff1673ffffffffffffffffffffffffffffffffffffffff16815260200190815260200160002054604051808781526020018673ffffffffffffffffffffffffffffffffffffffff1673ffffffffffffffffffffffffffffffffffffffff1681526020018573ffffffffffffffffffffffffffffffffffffffff1673ffffffffffffffffffffffffffffffffffffffff168152602001848152602001838152602001828152602001965050505050505060405180910390a26000600160003373ffffffffffffffffffffffffffffffffffffffff1673ffffffffffffffffffffffffffffffffffffffff1681526020019081526020016000208190555092915050565b6000600160003373ffffffffffffffffffffffffffffffffffffffff1673ffffffffffffffffffffffffffffffffffffffff1681526020019081526020016000205490506000600160003373ffffffffffffffffffffffffffffffffffffffff1673ffffffffffffffffffffffffffffffffffffffff168152602001908152602001600020541161092f576040517f08c379a0000000000000000000000000000000000000000000000000000000008152600401808060200182810382526024815260200180610b1d6024913960400191505060405180910390fd5b6000600160003373ffffffffffffffffffffffffffffffffffffffff1673ffffffffffffffffffffffffffffffffffffffff168152602001908152602001600020819055503373ffffffffffffffffffffffffffffffffffffffff166108fc829081150290604051600060405180830381858888f193505050501580156109ba573d6000803e3d6000fd5b507f7cf2a52b4061cc76fd631cff8393d8e7a5967e2afeb159c021004ace1e0e97c03382604051808373ffffffffffffffffffffffffffffffffffffffff1673ffffffffffffffffffffffffffffffffffffffff1681526020018281526020019250505060405180910390a150565b600034600160003373ffffffffffffffffffffffffffffffffffffffff1673ffffffffffffffffffffffffffffffffffffffff1681526020019081526020016000206000828254019250508190555090565b60008060028481610a8857fe5b061415610aa15760028381610a9957fe5b049050610acd565b8115610abc5760026001840181610ab457fe5b049050610acd565b60026001840381610ac957fe5b0490505b92915050565b6000600160008373ffffffffffffffffffffffffffffffffffffffff1673ffffffffffffffffffffffffffffffffffffffff16815260200190815260200160002054905091905056fe4e6f207765692061726520617661696c61626c6520696e20746869732062616c616e63655468657265206172652074776f206f72206d6f7265206964656e746963616c20616464726573736573a265627a7a7231582024b0a5406fd1c32197598911381c094ff74d7f8def4372fafe69d164762aff7064736f6c63430005100032",
  "source": "// SPDX-License-Identifier: MIT\r\n\r\npragma solidity >=0.4.25 <=0.7.0; //solc --version to match our solidity compiler version on Vagrant\r\n\r\ncontract Splitter {\r\n    \r\n    //------------------------------------------------ Global variables\r\n\r\n    address payable owner;\r\n    \r\n    //------------------------------------------------ Struct\r\n\r\n    //------------------------------------------------ Events\r\n\r\n    event splitLog(address indexed owner, uint amount, address beneficiary1, address beneficiary2, uint owner_balance, uint b1_balance, uint b2_balance);\r\n    event withdrawRefundLog(address beneficiary, uint amount);\r\n    \r\n    //------------------------------------------------ Mappings\r\n\r\n    mapping(address => uint) balances;\r\n    mapping(address => bool) isPayed;\r\n    \r\n    //------------------------------------------------ Modifiers\r\n\r\n    modifier onlyOwner {\r\n        require(owner == msg.sender);\r\n        _;\r\n    }\r\n    \r\n    modifier isSplittable {\r\n       require(balances[owner] >= 1000000000000); //0.001 ETH\r\n      _;\r\n    }\r\n    \r\n    \r\n    //------------------------------------------------ Constructor \r\n\r\n    constructor() public {\r\n        owner = msg.sender;\r\n    }\r\n    \r\n    //------------------------------------------------ Functions\r\n    \r\n    function oddCheckSplit(uint _amount, bool isUp) public pure returns(uint){\r\n        if(_amount % 2 == 0){\r\n            return _amount / 2;\r\n        } else {\r\n            if(isUp){\r\n                return (_amount + 1) / 2; //isUp = true\r\n            } else {\r\n                return (_amount - 1) / 2; //isUp = false\r\n            }\r\n        }\r\n    }\r\n    \r\n    \r\n    function split(address _first, address _second) public onlyOwner isSplittable returns(bool){\r\n        require(_first != msg.sender && _second != msg.sender && _first != _second, \"There are two or more identical addresses\");\r\n        require(_first != address(0x0) && _second != address(0x0), \"Beneficiaries could not e null\");\r\n        balances[_first] += oddCheckSplit(balances[msg.sender], true);\r\n        balances[_second] += oddCheckSplit(balances[msg.sender], false);\r\n        emit splitLog(msg.sender, balances[msg.sender], _first, _second, balances[owner] -  balances[_first] - balances[_second], balances[_first], balances[_second]);\r\n        balances[msg.sender] = 0;\r\n    }\r\n\r\n    function addFund() payable public returns(bool){\r\n        //who want to split some ethers put the msg.value inside her balances\r\n        balances[msg.sender] += msg.value;\r\n    }\r\n\r\n    function getBalance(address _address) public view returns(uint){\r\n        return balances[_address];\r\n    }\r\n\r\n    function withdrawRefund() public {\r\n        //who ask to be refunded\r\n        uint amountToRefund = balances[msg.sender];\r\n        require(balances[msg.sender] > 0, \"No wei are available in this balance\");\r\n        balances[msg.sender] = 0; \r\n        msg.sender.transfer(amountToRefund);\r\n        emit withdrawRefundLog(msg.sender, amountToRefund);\r\n    }\r\n\r\n}",
  "sourcePath": "/home/vagrant/DAPPS/project1_b9lab/dapps/tmp-32507lSn1irRp5KaP/box/contracts/Splitter.sol",
  "compiler": {
    "name": "solc",
    "version": "0.5.16+commit.9c3226ce.Emscripten.clang"
  },
  "schemaVersion": "3.2.0",
  "updatedAt": "2020-12-15T10:40:51.916Z",
  "networkType": "ethereum",
  "devdoc": {
    "methods": {}
  },
  "userdoc": {
    "methods": {}
  }
}