{
  "contractName": "Splitter",
  "abi": [
    {
      "inputs": [],
      "payable": false,
      "stateMutability": "nonpayable",
      "type": "constructor"
    },
    {
      "anonymous": false,
      "inputs": [
        {
          "indexed": true,
          "internalType": "address",
          "name": "owner",
          "type": "address"
        },
        {
          "indexed": false,
          "internalType": "uint256",
          "name": "amount",
          "type": "uint256"
        },
        {
          "indexed": false,
          "internalType": "address",
          "name": "beneficiary1",
          "type": "address"
        },
        {
          "indexed": false,
          "internalType": "address",
          "name": "beneficiary2",
          "type": "address"
        }
      ],
      "name": "splitLog",
      "type": "event"
    },
    {
      "anonymous": false,
      "inputs": [
        {
          "indexed": false,
          "internalType": "address",
          "name": "beneficiary",
          "type": "address"
        },
        {
          "indexed": false,
          "internalType": "uint256",
          "name": "amount",
          "type": "uint256"
        }
      ],
      "name": "withdrawRefundLog",
      "type": "event"
    },
    {
      "constant": true,
      "inputs": [
        {
          "internalType": "uint256",
          "name": "_amount",
          "type": "uint256"
        },
        {
          "internalType": "bool",
          "name": "isUp",
          "type": "bool"
        }
      ],
      "name": "oddCheckSplit",
      "outputs": [
        {
          "internalType": "uint256",
          "name": "",
          "type": "uint256"
        }
      ],
      "payable": false,
      "stateMutability": "pure",
      "type": "function"
    },
    {
      "constant": false,
      "inputs": [
        {
          "internalType": "address",
          "name": "_first",
          "type": "address"
        },
        {
          "internalType": "address",
          "name": "_second",
          "type": "address"
        }
      ],
      "name": "split",
      "outputs": [
        {
          "internalType": "bool",
          "name": "",
          "type": "bool"
        }
      ],
      "payable": false,
      "stateMutability": "nonpayable",
      "type": "function"
    },
    {
      "constant": false,
      "inputs": [],
      "name": "addFund",
      "outputs": [
        {
          "internalType": "bool",
          "name": "",
          "type": "bool"
        }
      ],
      "payable": true,
      "stateMutability": "payable",
      "type": "function"
    },
    {
      "constant": true,
      "inputs": [
        {
          "internalType": "address",
          "name": "_address",
          "type": "address"
        }
      ],
      "name": "getBalance",
      "outputs": [
        {
          "internalType": "uint256",
          "name": "",
          "type": "uint256"
        }
      ],
      "payable": false,
      "stateMutability": "view",
      "type": "function"
    },
    {
      "constant": false,
      "inputs": [],
      "name": "withdrawRefund",
      "outputs": [],
      "payable": false,
      "stateMutability": "nonpayable",
      "type": "function"
    },
    {
      "constant": true,
      "inputs": [],
      "name": "getOwner",
      "outputs": [
        {
          "internalType": "address",
          "name": "",
          "type": "address"
        }
      ],
      "payable": false,
      "stateMutability": "view",
      "type": "function"
    }
  ],
  "bytecode": "0x608060405264e8d4a510006001556000600260006101000a81548173ffffffffffffffffffffffffffffffffffffffff021916908373ffffffffffffffffffffffffffffffffffffffff16021790555034801561005b57600080fd5b50336000806101000a81548173ffffffffffffffffffffffffffffffffffffffff021916908373ffffffffffffffffffffffffffffffffffffffff160217905550610a97806100ab6000396000f3fe6080604052600436106100555760003560e01c80630f2c93291461005a578063110f8874146100e3578063893d20e8146100fa578063a2f09dfa14610151578063dfc312da14610173578063f8b2cb4f146101ce575b600080fd5b34801561006657600080fd5b506100c96004803603604081101561007d57600080fd5b81019080803573ffffffffffffffffffffffffffffffffffffffff169060200190929190803573ffffffffffffffffffffffffffffffffffffffff169060200190929190505050610233565b604051808215151515815260200191505060405180910390f35b3480156100ef57600080fd5b506100f8610723565b005b34801561010657600080fd5b5061010f6108f9565b604051808273ffffffffffffffffffffffffffffffffffffffff1673ffffffffffffffffffffffffffffffffffffffff16815260200191505060405180910390f35b610159610922565b604051808215151515815260200191505060405180910390f35b34801561017f57600080fd5b506101b86004803603604081101561019657600080fd5b8101908080359060200190929190803515159060200190929190505050610974565b6040518082815260200191505060405180910390f35b3480156101da57600080fd5b5061021d600480360360208110156101f157600080fd5b81019080803573ffffffffffffffffffffffffffffffffffffffff1690602001909291905050506109cc565b6040518082815260200191505060405180910390f35b6000600154600360008060009054906101000a900473ffffffffffffffffffffffffffffffffffffffff1673ffffffffffffffffffffffffffffffffffffffff1673ffffffffffffffffffffffffffffffffffffffff1681526020019081526020016000205410156102a457600080fd5b3373ffffffffffffffffffffffffffffffffffffffff168373ffffffffffffffffffffffffffffffffffffffff161415801561030c57503373ffffffffffffffffffffffffffffffffffffffff168273ffffffffffffffffffffffffffffffffffffffff1614155b801561034457508173ffffffffffffffffffffffffffffffffffffffff168373ffffffffffffffffffffffffffffffffffffffff1614155b610399576040517f08c379a0000000000000000000000000000000000000000000000000000000008152600401808060200182810382526029815260200180610a3a6029913960400191505060405180910390fd5b600260009054906101000a900473ffffffffffffffffffffffffffffffffffffffff1673ffffffffffffffffffffffffffffffffffffffff168373ffffffffffffffffffffffffffffffffffffffff16141580156104455750600260009054906101000a900473ffffffffffffffffffffffffffffffffffffffff1673ffffffffffffffffffffffffffffffffffffffff168273ffffffffffffffffffffffffffffffffffffffff1614155b6104b7576040517f08c379a000000000000000000000000000000000000000000000000000000000815260040180806020018281038252601e8152602001807f42656e6566696369617269657320636f756c64206e6f742065206e756c6c000081525060200191505060405180910390fd5b610501600360003373ffffffffffffffffffffffffffffffffffffffff1673ffffffffffffffffffffffffffffffffffffffff168152602001908152602001600020546001610974565b600360008573ffffffffffffffffffffffffffffffffffffffff1673ffffffffffffffffffffffffffffffffffffffff16815260200190815260200160002060008282540192505081905550610597600360003373ffffffffffffffffffffffffffffffffffffffff1673ffffffffffffffffffffffffffffffffffffffff168152602001908152602001600020546000610974565b600360008473ffffffffffffffffffffffffffffffffffffffff1673ffffffffffffffffffffffffffffffffffffffff168152602001908152602001600020600082825401925050819055503373ffffffffffffffffffffffffffffffffffffffff167f31dbbfa8dae3d7ec373660f926faa60318be0661c2b432fa9b0f82c84e7cbccc600360003373ffffffffffffffffffffffffffffffffffffffff1673ffffffffffffffffffffffffffffffffffffffff168152602001908152602001600020548585604051808481526020018373ffffffffffffffffffffffffffffffffffffffff1673ffffffffffffffffffffffffffffffffffffffff1681526020018273ffffffffffffffffffffffffffffffffffffffff1673ffffffffffffffffffffffffffffffffffffffff168152602001935050505060405180910390a26000600360003373ffffffffffffffffffffffffffffffffffffffff1673ffffffffffffffffffffffffffffffffffffffff1681526020019081526020016000208190555092915050565b6000600360003373ffffffffffffffffffffffffffffffffffffffff1673ffffffffffffffffffffffffffffffffffffffff1681526020019081526020016000205490506000600360003373ffffffffffffffffffffffffffffffffffffffff1673ffffffffffffffffffffffffffffffffffffffff16815260200190815260200160002054116107ff576040517f08c379a0000000000000000000000000000000000000000000000000000000008152600401808060200182810382526024815260200180610a166024913960400191505060405180910390fd5b6000600360003373ffffffffffffffffffffffffffffffffffffffff1673ffffffffffffffffffffffffffffffffffffffff168152602001908152602001600020819055503373ffffffffffffffffffffffffffffffffffffffff166108fc829081150290604051600060405180830381858888f1935050505015801561088a573d6000803e3d6000fd5b507f7cf2a52b4061cc76fd631cff8393d8e7a5967e2afeb159c021004ace1e0e97c03382604051808373ffffffffffffffffffffffffffffffffffffffff1673ffffffffffffffffffffffffffffffffffffffff1681526020018281526020019250505060405180910390a150565b60008060009054906101000a900473ffffffffffffffffffffffffffffffffffffffff16905090565b600034600360003373ffffffffffffffffffffffffffffffffffffffff1673ffffffffffffffffffffffffffffffffffffffff1681526020019081526020016000206000828254019250508190555090565b6000806002848161098157fe5b06141561099a576002838161099257fe5b0490506109c6565b81156109b557600260018401816109ad57fe5b0490506109c6565b600260018403816109c257fe5b0490505b92915050565b6000600360008373ffffffffffffffffffffffffffffffffffffffff1673ffffffffffffffffffffffffffffffffffffffff16815260200190815260200160002054905091905056fe4e6f207765692061726520617661696c61626c6520696e20746869732062616c616e63655468657265206172652074776f206f72206d6f7265206964656e746963616c20616464726573736573a265627a7a72315820631bc85ef27db9acaa73c19b906443eacdaa908d91359606cecad457809b2ddf64736f6c63430005100032",
  "source": "// SPDX-License-Identifier: MIT\r\n\r\npragma solidity >=0.4.25 <=0.7.0; //solc --version to match our solidity compiler version on Vagrant\r\n\r\ncontract Splitter {\r\n    \r\n    //------------------------------------------------ Global variables\r\n\r\n    address payable          __OWNER__;\r\n    uint                    __MINIMUM_VALUE_SPLITTABLE__ = 1000000000000;\r\n    address                 __NULL_ADDRESS__ = address(0x0);\r\n    \r\n    //------------------------------------------------ Struct\r\n\r\n    //------------------------------------------------ Events\r\n\r\n    event splitLog(address indexed owner, uint amount, address beneficiary1, address beneficiary2);\r\n    event withdrawRefundLog(address beneficiary, uint amount);\r\n    \r\n    //------------------------------------------------ Mappings\r\n\r\n    mapping(address => uint) balances;\r\n    mapping(address => bool) isPayed;\r\n    \r\n    //------------------------------------------------ Modifiers\r\n\r\n    modifier onlyOwner {\r\n        require(__OWNER__ == msg.sender);\r\n        _;\r\n    }\r\n    \r\n    modifier isSplittable {\r\n       require(balances[__OWNER__] >= __MINIMUM_VALUE_SPLITTABLE__);\r\n      _;\r\n    }\r\n    \r\n    \r\n    //------------------------------------------------ Constructor \r\n\r\n    constructor() public {\r\n        __OWNER__ = msg.sender;\r\n    }\r\n    \r\n    //------------------------------------------------ Functions\r\n    \r\n    function oddCheckSplit(uint _amount, bool isUp) public pure returns(uint){\r\n        if(_amount % 2 == 0){\r\n            return _amount / 2;\r\n        } else {\r\n            if(isUp){\r\n                return (_amount + 1) / 2; //isUp = true\r\n            } else {\r\n                return (_amount - 1) / 2; //isUp = false\r\n            }\r\n        }\r\n    }\r\n    \r\n    \r\n    function split(address _first, address _second) public isSplittable returns(bool){\r\n        require(_first != msg.sender && _second != msg.sender && _first != _second, \"There are two or more identical addresses\");\r\n        require(_first != __NULL_ADDRESS__ && _second != __NULL_ADDRESS__, \"Beneficiaries could not e null\");\r\n        balances[_first] += oddCheckSplit(balances[msg.sender], true);\r\n        balances[_second] += oddCheckSplit(balances[msg.sender], false);\r\n        emit splitLog(msg.sender, balances[msg.sender], _first, _second);\r\n        balances[msg.sender] = 0;\r\n    }\r\n\r\n    function addFund() payable public returns(bool){\r\n        //who want to split some ethers put the msg.value inside her balances\r\n        balances[msg.sender] += msg.value;\r\n    }\r\n\r\n    function getBalance(address _address) public view returns(uint){\r\n        return balances[_address];\r\n    }\r\n\r\n    function withdrawRefund() public {\r\n        //who ask to be refunded\r\n        uint amountToRefund = balances[msg.sender];\r\n        require(balances[msg.sender] > 0, \"No wei are available in this balance\");\r\n        balances[msg.sender] = 0; \r\n        msg.sender.transfer(amountToRefund);\r\n        emit withdrawRefundLog(msg.sender, amountToRefund);\r\n    }\r\n    \r\n    function getOwner() public view returns(address){\r\n        return __OWNER__;\r\n    }\r\n\r\n}",
  "sourcePath": "/home/vagrant/DAPPS/project1_b9lab/dapps/tmp-32507lSn1irRp5KaP/box/contracts/Splitter.sol",
  "compiler": {
    "name": "solc",
    "version": "0.5.16+commit.9c3226ce.Emscripten.clang"
  },
  "schemaVersion": "3.2.0",
  "updatedAt": "2020-12-12T17:17:35.524Z",
  "networkType": "ethereum",
  "devdoc": {
    "methods": {}
  },
  "userdoc": {
    "methods": {}
  }
}